:100000001AEF04F00000000000EF00F00000000014
:0A0010000000000000000000F3D71C
:10001C0092809282928492869288928A968096821C
:10002C0089908992899489968998899A8D908D92D4
:02003C001200B0
:10003E00000E80B0010E176E000E80B2010E196E0A
:10004E00000E80B4010E186E000E80B6010E256EE5
:10005E00000E80B8010E246E000E80BA010E266EC0
:10006E00000E84B0010E286E000E84B2010E276EB3
:02007E0012006E
:100080000B6A0A6A096A00500402F4CF09F0F3CF40
:1000900008F001500502F4CF0BF0F3CF0AF0005046
:1000A0000502F3500926F4500A22E86A0B22015097
:1000B0000402F3500926F4500A22E86A0B2208C011
:1000C00000F009C001F00AC002F00BC003F01200FA
:0800D000BE6ABD98BD9A120042
:0800D800BB6ABA98BA9A120043
:1000E00092909292929492969298929A96909692D8
:1000F00089808982898489868988898A8D808D8290
:020100001200EB
:0A0102009492CA840C0EBA12120087
:10010C00CB50010F006E016A000E01222AC004F0D0
:10011C00000E056EAFDF060E026E00C004F001C0CB
:10012C0005F0025005E005320432059EFF0FFAD7A8
:10013C00040E016E04C000F0015004E00036009083
:10014C00FF0FFBD7300E0014036E04C000F005C087
:10015C0001F001320032019E01320032019E00C0DA
:0C016C00BEFF0F0EBD160350BD121200A6
:10017800CB50010F006E016A000E01222AC004F064
:10018800000E056E79DF060E026E00C004F001C095
:1001980005F0025005E005320432059EFF0FFAD73C
:1001A800040E016E04C000F0015004E00036009017
:1001B800FF0FFBD7300E0014036E04C000F005C01B
:1001C80001F001320032019E01320032019E00C06E
:0C01D800BBFF0F0EBA160350BA12120043
:1001E400CA90CA92C70ECB6E71DFCA90CA92C70E6C
:0601F400CB6E70DF12006B
:1001FA0072DF040E0D6E0D2EFED70000000009DF1F
:10020A00F90E0D6E0D2EFED70000000013DF12004E
:0A021A009494CA840C0EBD12120069
:0A0224009484CA94F00EBD16120077
:0A022E009482CA94F00EBA16120072
:100238008A82040E0D6E0D2EFED7000000008A92F1
:020248001200A2
:10024A008A86040E0D6E0D2EFED7000000008A96D7
:02025A00120090
:0A025C0095948C84B86AB96A120008
:0E026600DEDFE2DF8C928C908B968B90120084
:100274002950010A09E18C928C908B868B90CBDFFC
:10028400960E2A6E41DF0BD02950000A08E18C82B9
:100294008C908B968B9033DF960E2A6E6BDF120058
:1002A40095929590949694909492949499DF9598BD
:0402B400959A120005
:1002B8008C828C908B868B90ACDF1FDF640E2A6E4D
:0A02C80021DF640E2A6E54DF1200DD
:1002D20037D08C8A8C98150E0B6E4B0E0C6EBE0EA0
:1002E2000D6E0D2EFED70C2EFCD70B2EFAD700006A
:1002F2008C9A30D08C9A8C88150E0B6E4B0E0C6E2D
:10030200BE0E0D6E0D2EFED70C2EFCD70B2EFAD77D
:1003120000008C981FD08C8A8C88150E0B6E4B0EA9
:100322000C6EBE0E0D6E0D2EFED70C2EFCD70B2EB4
:10033200FAD700008C988C9A0DD08C988C9A0AD09F
:100342002950000AC6E02950010AD4E02950020AC5
:06035200E2E0F3D7120007
:1003580050DF17C015F0030E1902F3CF00F000505C
:100368001724156E050E1802F3CF00F0005015265D
:10037800070E2502F3CF00F0005015260B0E2402BD
:10038800F3CF00F0005015260D0E2602F3CF00F033
:10039800005015260F0E2802F3CF00F00050152646
:1003A800110E2702F3CF00F0005015262CD0226A38
:1003B80058D0226A56D0226A54D0010E226E51D0EB
:1003C800010E226E4ED0020E226E4BD0020E226E0D
:1003D80048D0030E226E45D0040E226E42D0FF0E86
:1003E800226E3FD0FF0E226E3CD0FE0E226E39D018
:1003F800FE0E226E36D0FD0E226E33D0FC0E226E1B
:1004080030D0226A2ED01550240AD1E01550290A7E
:10041800D0E01550310ACFE015502E0ACEE0155025
:10042800390ACEE01550380ACEE015503F0ACEE022
:100438001550440ACEE01550470ACEE015501A0A66
:10044800CEE01550210ACEE015501B0ACEE015501B
:10045800100ACEE01550280ACEE01550370ACEE033
:08046800D0D722C000F0120001
:100470008C828C908B868B90D0DE43DEB40E2A6EFD
:1004800045DEB40E2A6E78DE0D0E0C6EFB0E0D6E80
:0E0490000D2EFED70C2EFCD70000000012002F
:10049E00100ECD6E1D6A166A800E1618006E800E36
:1004AE00050A005C23E281A002D00000FCD7BDDE6D
:1004BE0081B002D00000FCD7CD90CF6ACE6ACD803D
:1004CE00CFCF01F0006ACE500010026E01C003F0D3
:1004DE00000E0312040E035C02E17E0E025C04E2C7
:1004EE0081A001D0EDD71D2A162AD6D7800E020A7A
:1004FE00006E800E1D18005C03E2010E006E01D02E
:04050E00006A12006D
:0E05120093809384938893929396939A120009
:10052000100ECD6E1C6A1E6A800E1E18006E800EA4
:10053000050A005C23E281A402D00000FCD785DE1E
:1005400081B402D00000FCD7CD90CF6ACE6ACD80B6
:10055000CFCF01F0006ACE500010026E01C003F050
:10056000000E0312040E035C02E17E0E025C04E244
:1005700081A401D0EDD71C2A1E2AD6D7800E020AEC
:10058000006E800E1C18005C03E2010E006E01D0AC
:04059000006A1200EB
:08059400296A9DDE6BDF1200F5
:10059C000900F5CFE6FF0006FBE10106F9E11200C8
:0805AC0057DE7ADEB0DF120019
:1005B40058DEB4DF00C01BF0820E0C6EDD0E0D6E33
:1005C4000D2EFED70C2EFCD70000000066DF00C005
:1005D4001AF0820E0C6EDD0E0D6E0D2EFED70C2E53
:1005E400FCD7000000001B5202E0296A70DE1A5298
:1005F40003E0010E296E6BDE1A5205E01B5203E084
:0A060400020E296E64DE32DF1200E0
:10060E00F5DD17C015F0030E1902F3CF00F0005000
:10061E001724156E050E1802F3CF00F000501526A4
:10062E00070E2502F3CF00F0005015260B0E240204
:10063E00F3CF00F0005015260D0E2602F3CF00F07A
:10064E00005015260F0E2802F3CF00F0005015268D
:10065E00110E2702F3CF00F00050152613D0020E14
:10066E00206E23D0206A21D0206A1FD0010E206E6A
:10067E001CD0010E206E19D0030E206E16D0040E63
:10068E00206E13D01550000AEAE01550040AEAE075
:10069E001550090AE9E01550200AE8E015502D0A18
:1006AE00E8E01550480AE8E0EAD720C000F0120052
:1006BE00D3DDEEDE00C01AF0820E0C6EDD0E0D6E76
:1006CE000D2EFED70C2EFCD70000000022DF00C03E
:1006DE001BF0820E0C6EDD0E0D6E0D2EFED70C2E47
:1006EE00FCD7000000001A5203E0010E296EEADD6D
:1006FE001B5202E0296AE6DD1A5205E01B5203E0A6
:0A070E00020E296EDFDDADDE1200E1
:100718001FDE00C023F0CCDD65D0010E296EA6DDFA
:10072800210E0C6E760E0D6E0D2EFED70C2EFCD7FC
:10073800000071D0296A9ADD210E0C6E760E0D6EBE
:100748000D2EFED70C2EFCD7000065D0010E296EA9
:100758008DDD210E0C6E760E0D6E0D2EFED70C2E35
:10076800FCD7000058D0296A81DD210E0C6E760E68
:100778000D6E0D2EFED70C2EFCD700004CD0010EAE
:10078800296E74DD260E0C6EA80E0D6E0D2EFED78A
:100798000C2EFCD700003FD0296A68DD260E0C6EAF
:1007A800A80E0D6E0D2EFED70C2EFCD7000033D0F0
:1007B800010E296E5BDD260E0C6EA80E0D6E0D2E39
:1007C800FED70C2EFCD7000026D0296A4FDD260E56
:1007D8000C6EA80E0D6E0D2EFED70C2EFCD7000049
:1007E8001AD019D02350040A98E02350FC0AA2E03A
:1007F8002350030AABE02350FD0AB5E02350020A58
:10080800BEE02350FE0AC8E02350010AD1E023507D
:08081800FF0ADBE0E6D7120045
:0A082000010E296E56DD24DE1200E1
:0A082A00020E296E51DD1FDE1200E0
:10083400BBDE010E1F6E1ADE1F5216E06BDFE5DE13
:1008440000C021F00050020A0EE164DF020E0B6EBC
:10085400860E0C6E990E0D6E0D2EFED70C2EFCD747
:100864000B2EFAD71F6AE8D7D0DE00C021F0005063
:10087400040A02E14FDF56D02150010A02E11DDFD4
:1008840051D02150000A02E193DE4CD02150020ADB
:100894003BE1E7DC140E0C6E790E0D6E0D2EFED7C7
:1008A4000C2EFCD70000000039DE00C01BF0020E45
:1008B4000B6E040E0C6EBA0E0D6E0D2EFED70C2EA2
:1008C400FCD70B2EFAD70000E8DD00C01AF0020EA8
:1008D4000B6E040E0C6EBA0E0D6E0D2EFED70C2E82
:1008E400FCD70B2EFAD700001A5203E01B5201E08A
:1008F4009ADF1A5203E01B5201E190DF1A5203E11E
:100904001B5201E045DE0ED02150030A0BE1820E9A
:100914000C6EDD0E0D6E0D2EFED70C2EFCD70000D6
:0809240000009FDC89D7FFD71A
:020000040030CA
:0D000100C20F3E3C9D81FF0FC00FE00F407D
:00000001FF
