:10000000CDEF04F00000000000EF00F00000000061
:0A0010000000000000000000F3D71C
:10001C0092809282928492869288928A968096821C
:10002C0089908992899489968998899A8D908D92D4
:02003C001200B0
:10003E0092909292929492969298929A969096927A
:10004E0089808982898489868988898A8D808D8232
:02005E0012008E
:100060000B6A0A6A096A00500402F4CF09F0F3CF60
:1000700008F001500502F4CF0BF0F3CF0AF0005066
:100080000502F3500926F4500A22E86A0B220150B7
:100090000402F3500926F4500A22E86A0B2208C031
:1000A00000F009C001F00AC002F00BC003F012001A
:1000B000000E80B0010E1B6E000E80B2010E1D6E90
:1000C000000E80B4010E1F6E000E80B6010E1E6E73
:1000D000000E80B8010E1A6E000E80BA010E166E68
:1000E000000E84B0010E156E000E84B2010E176E64
:0200F0001200FC
:0800F200BE6ABD98BD9A120020
:0800FA00BB6ABA98BA9A120021
:10010200CB50010F006E016A000E012232C004F0D2
:10011200000E056EA4DF060E026E00C004F001C0E0
:1001220005F0025005E005320432059EFF0FFAD7B2
:10013200040E016E04C000F0015004E0003600908D
:10014200FF0FFBD7300E0014036E04C000F005C091
:1001520001F001320032019E01320032019E00C0E4
:0C016200BEFF0F0EBD160350BD121200B0
:10016E00CA90CA92C70ECB6EBDDFCA90CA92C70E96
:06017E00CB6EBCDF120095
:10018400CB50010F006E016A000E012232C004F050
:10019400000E056E63DF060E026E00C004F001C09F
:1001A40005F0025005E005320432059EFF0FFAD730
:1001B400040E016E04C000F0015004E0003600900B
:1001C400FF0FFBD7300E0014036E04C000F005C00F
:1001D40001F001320032019E01320032019E00C062
:0C01E400BBFF0F0EBA160350BA12120037
:1001F00026DF040E0D6E0D2EFED7000000000EDF70
:10020000F90E0D6E0D2EFED70000000051DF12001A
:0A0210009494CA840C0EBD12120073
:0A021A009492CA840C0EBA1212006E
:0A0224009484CA94F00EBD16120077
:0A022E009482CA94F00EBA16120072
:100238008A82040E0D6E0D2EFED7000000008A92F1
:020248001200A2
:10024A008A86040E0D6E0D2EFED7000000008A96D7
:02025A00120090
:0E025C00E3DFE7DF8C928C908B968B90120084
:10026A00C2DF1BC01CF0030E1D02F3CF00F00050CA
:10027A001C26050E1F02F3CF00F000501C26070EA5
:10028A001E02F3CF00F000501C260B0E1A02F3CF09
:10029A0000F000501C260D0E1602F3CF00F000509D
:1002AA001C260F0E1502F3CF00F000501C26110E6B
:1002BA001702F3CF00F000501C262CD0246A58D025
:1002CA00246A56D0246A54D0010E246E51D0010EED
:1002DA00246E4ED0020E246E4BD0020E246E48D0ED
:1002EA00030E246E45D0040E246E42D0FF0E246EF7
:1002FA003FD0FF0E246E3CD0FE0E246E39D0FE0E87
:10030A00246E36D0FD0E246E33D0FC0E246E30D00F
:10031A00246A2ED01C50240AD1E01C50290AD0E0AD
:10032A001C50310ACFE01C502E0ACEE01C50390A6C
:10033A00CEE01C50380ACEE01C503F0ACEE01C50DA
:10034A00440ACEE01C50470ACEE01C501A0ACEE0FE
:10035A001C50210ACEE01C501B0ACEE01C50100A89
:10036A00CEE01C50280ACEE01C50370ACEE0D0D787
:06037A0024C000F0120097
:100380003150010A09E18C928C908B868B9040DF72
:10039000960E326EB6DE0BD03150000A08E18C8228
:1003A0008C908B968B9039DF960E326EEBDE1200BE
:1003B000100ECD6E2B6A2A6A800E2A18006E800EEF
:1003C000050A005C23E281A002D00000FCD734DFE4
:1003D00081B002D00000FCD7CD90CF6ACE6ACD802C
:1003E000CFCF01F0006ACE500010026E01C003F0C2
:1003F000000E0312040E035C02E17E0E025C04E2B6
:1004000081A001D0EDD72B2A2A2AD6D7800E020A46
:10041000006E800E2B18005C03E2010E006E01D00E
:04042000006A12005C
:100424009592959094969490949294949EDE959837
:04043400959A120083
:0E04380093809384938893929396939A1200E4
:0A04460095948C84B86AB96A12001C
:1004500037D08C8A8C98150E0B6E4B0E0C6EBE0E20
:100460000D6E0D2EFED70C2EFCD70B2EFAD70000EA
:100470008C9A30D08C9A8C88150E0B6E4B0E0C6EAD
:10048000BE0E0D6E0D2EFED70C2EFCD70B2EFAD7FE
:1004900000008C981FD08C8A8C88150E0B6E4B0E2A
:1004A0000C6EBE0E0D6E0D2EFED70C2EFCD70B2E35
:1004B000FAD700008C988C9A0DD08C988C9A0AD020
:1004C0003150000AC6E03150010AD4E03150020A2E
:0604D000E2E0F3D7120088
:1004D600100ECD6E276A296A800E2918006E800ECE
:1004E600050A005C23E281A402D00000FCD7AADE44
:1004F60081B402D00000FCD7CD90CF6ACE6ACD8001
:10050600CFCF01F0006ACE500010026E01C003F09A
:10051600000E0312040E035C02E17E0E025C04E28E
:1005260081A401D0EDD7272A292AD6D7800E020A20
:10053600006E800E2718005C03E2010E006E01D0EB
:04054600006A120035
:10054A008C828C908B868B905EDE62DEAA0E326E77
:10055A00D3DDAA0E326E11DE0D0E0C6EFB0E0D6E81
:0E056A000D2EFED70C2EFCD700000000120054
:100578008C828C908B868B9047DE4BDE640E326EBD
:0A058800BCDD640E326EFADD1200D5
:08059200316A5DDFD9DF1200C0
:0A059A00010E316E58DFD4DF1200AD
:1005A4000900F5CFE6FF0006FBE10106F9E11200C0
:0805B40048DF36DF3FDF1200D3
:1005BC004FDEF8DE00C028F0820E0C6EDD0E0D6EE4
:1005CC000D2EFED70C2EFCD7000000007EDF00C0E5
:1005DC0020F0820E0C6EDD0E0D6E0D2EFED70C2E45
:1005EC00FCD700000000285203E0010E316E2ADF18
:1005FC00205202E0316A26DF285205E0205203E047
:0A060C00020E316E1FDF9BDF1200AB
:0A061600020E316E1ADF96DF1200AB
:100620001DDE59DF00C020F0820E0C6EDD0E0D6E57
:100630000D2EFED70C2EFCD700000000B9DE00C046
:1006400028F0820E0C6EDD0E0D6E0D2EFED70C2ED8
:10065000FCD700000000205202E0316AF9DE285287
:1006600003E0010E316EF4DE285205E0205203E073
:0A067000020E316EEDDE69DF1200AC
:10067A00BADD1BC01CF0030E1D02F3CF00F00050C0
:10068A001C26050E1F02F3CF00F000501C26070E91
:10069A001E02F3CF00F000501C260B0E1A02F3CFF5
:1006AA0000F000501C260D0E1602F3CF00F0005089
:1006BA001C260F0E1502F3CF00F000501C26110E57
:1006CA001702F3CF00F000501C2613D0020E196E49
:1006DA0023D0196A21D0196A1FD0010E196E1CD0B5
:1006EA00010E196E19D0030E196E16D0040E196E6A
:1006FA0013D01C50000AEAE01C50040AEAE01C501D
:10070A00090AE9E01C50200AE8E01C502D0AE8E03A
:0E071A001C50480AE8E0EAD719C000F01200AF
:100728000A0E2F6E306A2C502F02F3CF00F000C053
:100738002DF026502C5C006E00503002F3CF00F0F4
:1007480000502D242E6E2CC026F08C828C908B8627
:100758008B905ADD5EDD2E506C08326ECEDC2E504A
:080768006C0F326E0BDD120074
:100770007CDD00C025F000DF65D0010E316E00DEAB
:10078000210E0C6E760E0D6E0D2EFED70C2EFCD7A4
:10079000000071D0316AF4DD210E0C6E760E0D6E04
:1007A0000D2EFED70C2EFCD7000065D0010E316E49
:1007B000E7DD210E0C6E760E0D6E0D2EFED70C2E83
:1007C000FCD7000058D0316ADBDD210E0C6E760EAE
:1007D0000D6E0D2EFED70C2EFCD700004CD0010E56
:1007E000316ECEDD260E0C6EA80E0D6E0D2EFED7D0
:1007F0000C2EFCD700003FD0316AC2DD260E0C6EF5
:10080000A80E0D6E0D2EFED70C2EFCD7000033D097
:10081000010E316EB5DD260E0C6EA80E0D6E0D2E7E
:10082000FED70C2EFCD7000026D0316AA9DD260E9B
:100830000C6EA80E0D6E0D2EFED70C2EFCD70000F0
:100840001AD019D02550040A98E02550FC0AA2E0DD
:100850002550030AABE02550FD0AB5E02550020AF9
:10086000BEE02550FE0AC8E02550010AD1E025501F
:08087000FF0ADBE0E6D71200ED
:10087800BBDC1BC01CF0030E1D02F3CF00F00050C0
:100888001C26050E1F02F3CF00F000501C26070E91
:100898001E02F3CF00F000501C260B0E1A02F3CFF5
:1008A80000F000501C260D0E1602F3CF00F0005089
:1008B8001C260F0E1502F3CF00F000501C26110E57
:1008C8001702F3CF00F000501C262FD0186A5ED014
:1008D800186A5CD0186A5AD0FF0E186E57D0FF0EEF
:1008E800186E54D0FE0E186E51D0FE0E186E4ED0F3
:1008F800FD0E186E4BD0FC0E186E48D0010E186E07
:1009080045D0010E186E42D0020E186E3FD0020E6E
:10091800186E3CD0030E186E39D0040E186E36D0FF
:100928000A0E186E33D0186A31D01C50240ACEE053
:100938001C50290ACDE01C50310ACCE01C502E0A6C
:10094800CBE01C50390ACBE01C50380ACBE01C50D5
:100958003F0ACBE01C50440ACBE01C50470ACBE0CE
:100968001C501A0ACBE01C50210ACBE01C501B0A71
:10097800CBE01C50100ACBE01C50280ACBE01C50DE
:10098800370ACBE01C50480ACBE0CDD718C000F09E
:0209980012004B
:10099A000CDE010E226E266AD3DD225216E0E3DE59
:1009AA0067DE00C021F00050020A0EE1DCDE020E12
:1009BA000B6E860E0C6E990E0D6E0D2EFED70C2E3A
:1009CA00FCD70B2EFAD7226AE8D751DF00C023F0F2
:1009DA0000500A0A0CE1800E000A006E800E2618EA
:1009EA00005C03E2050E236E02D0FB0E236E40DE8E
:1009FA0000C021F00050040A04E123C02CF08FDE6D
:100A0A0057D02150010A02E1D4DD52D02150000A08
:100A1A0002E101DE4DD02150020A3BE11ADC140E3C
:100A2A000C6E790E0D6E0D2EFED70C2EFCD7000023
:100A3A0000004CDD00C020F0020E0B6E040E0C6E9E
:100A4A00BA0E0D6E0D2EFED70C2EFCD70B2EFAD732
:100A5A000000A9DC00C028F0020E0B6E040E0C6E1A
:100A6A00BA0E0D6E0D2EFED70C2EFCD70B2EFAD712
:100A7A000000285203E0205201E0C8DD285203E0BA
:100A8A00205201E185DD285203E1205201E07CDD9C
:100A9A000FD02150030A0CE1820E0C6EDD0E0D6E92
:100AAA000D2EFED70C2EFCD7000000002EEC01F014
:040ABA0074D7FFD717
:020000040030CA
:0D000100C20F3E3C9D81FF0FC00FE00F407D
:00000001FF
