:1000000020EF03F00000000000EF00F0000000000F
:0A0010000000000000000000F3D71C
:08001C00BE6ABD98BD9A1200F6
:08002400BB6ABA98BA9A1200F7
:10002C000B6A0A6A096A00500402F4CF09F0F3CF94
:10003C0008F001500502F4CF0BF0F3CF0AF000509A
:10004C000502F3500926F4500A22E86A0B220150EB
:10005C000402F3500926F4500A22E86A0B2208C065
:10006C0000F009C001F00AC002F00BC003F012004E
:10007C00000E80B0010E216E000E80B2010E1B6EC0
:10008C00000E80B4010E1C6E000E80B6010E1F6EA9
:10009C00000E80B8010E1E6E000E80BA010E1D6E91
:1000AC00000E84B0010E226E000E84B2010E186E8A
:0200BC00120030
:1000BE0092809282928492869288928A968096827A
:1000CE0089908992899489968998899A8D908D9232
:0200DE0012000E
:1000E00092909292929492969298929A96909692D8
:1000F00089808982898489868988898A8D808D8290
:020100001200EB
:0A0102009494CA840C0EBD12120082
:10010C00CB50010F006E016A000E012224C004F0D6
:10011C00000E056E85DF060E026E00C004F001C0F5
:10012C0005F0025005E005320432059EFF0FFAD7A8
:10013C00040E016E04C000F0015004E00036009083
:10014C00FF0FFBD7300E0014036E04C000F005C087
:10015C0001F001320032019E01320032019E00C0DA
:0C016C00BBFF0F0EBA160350BA121200AF
:0A0178009492CA840C0EBA12120011
:10018200CB50010F006E016A000E012224C004F060
:10019200000E056E4ADF060E026E00C004F001C0BA
:1001A20005F0025005E005320432059EFF0FFAD732
:1001B200040E016E04C000F0015004E0003600900D
:1001C200FF0FFBD7300E0014036E04C000F005C011
:1001D20001F001320032019E01320032019E00C064
:0C01E200BEFF0F0EBD160350BD12120030
:0A01EE009484CA94F00EBD161200AE
:0A01F8009482CA94F00EBA161200A9
:10020200CA90CA92C70ECB6E08DFCA90CA92C70EB6
:06021200CB6E07DF1200B5
:1002180063DF040E0D6E0D2EFED7000000004BDFCD
:10022800F90E0D6E0D2EFED70000000023DF120020
:0E023800DADFDEDF8C928C908B968B901200BA
:10024600959295909496949094929494D7DF1200F8
:0E02560093809384938893929396939A1200C8
:10026400D9DF21C01AF0030E1B02F3CF00F00050B7
:100274001A26050E1C02F3CF00F000501A26070EB2
:100284001F02F3CF00F000501A260B0E1E02F3CF0C
:1002940000F000501A260D0E1D02F3CF00F000509E
:1002A4001A260F0E2202F3CF00F000501A26110E68
:1002B4001802F3CF00F000501A262CD0206A58D030
:1002C400206A56D0206A54D0010E206E51D0010EFF
:1002D400206E4ED0020E206E4BD0020E206E48D0FF
:1002E400030E206E45D0040E206E42D0FF0E206E09
:1002F4003FD0FF0E206E3CD0FE0E206E39D0FE0E95
:10030400206E36D0FD0E206E33D0FC0E206E30D021
:10031400206A2ED01A50240AD1E01A50290AD0E0BB
:100324001A50310ACFE01A502E0ACEE01A50390A78
:10033400CEE01A50380ACEE01A503F0ACEE01A50E6
:10034400440ACEE01A50470ACEE01A501A0ACEE008
:100354001A50210ACEE01A501B0ACEE01A50100A95
:10036400CEE01A50280ACEE01A50370ACEE0D0D791
:0603740020C000F01200A1
:0A037A0095948C84B86AB96A1200E9
:100384002350010A05E18C928C808B868B9007D0D8
:100394002350000A04E18C828C908B968B80AFDE14
:1003A400E9DE960E246EEBDE960E246EADDE1200B0
:1003B4008C828C908B868B90A2DEDCDE5F0E246EAA
:0A03C400DEDE5F0E246EA0DE1200E4
:1003CE002350010A09E18C928C908B868B9092DEE1
:1003DE00960E246ECFDE0BD02350000A08E18C82DD
:1003EE008C908B968B90C1DE960E246E88DE12005A
:1003FE00236AC1DF0ADF2150010AFAE0236ABBDF5C
:10040E0004DF2150000AFAE0236AB5DFFEDE1F503A
:08041E00010AFAE00ADF1200F6
:08042600A9DF0EDF15DF120053
:10042E000900F5CFE6FF0006FBE10106F9E1120037
:10043E00330E0B6EBB0E0C6EDF0E0D6E0D2EFED739
:0E044E000C2EFCD70B2EFAD700000000120077
:10045C00DDDE21C01AF0030E1B02F3CF00F00050BA
:10046C001A26050E1C02F3CF00F000501A26070EB8
:10047C001F02F3CF00F000501A260B0E1E02F3CF12
:10048C0000F000501A260D0E1D02F3CF00F00050A4
:10049C001A260F0E2202F3CF00F000501A26110E6E
:1004AC001802F3CF00F000501A2613D0020E196E6A
:1004BC0023D0196A21D0196A1FD0010E196E1CD0D5
:1004CC00010E196E19D0030E196E16D0040E196E8A
:1004DC0013D01A50000AEAE01A50040AEAE01A5043
:1004EC00090AE9E01A50200AE8E01A502D0AE8E05F
:0E04FC001A50480AE8E0EAD719C000F01200D2
:10050A00ACDE00C017F051DF65D0010E236E5ADF52
:10051A00210E0C6E760E0D6E0D2EFED70C2EFCD70C
:10052A00000071D0236A4EDF210E0C6E760E0D6E1E
:10053A000D2EFED70C2EFCD7000065D0010E236EBF
:10054A0041DF210E0C6E760E0D6E0D2EFED70C2E8F
:10055A00FCD7000058D0236A35DF210E0C6E760EC8
:10056A000D6E0D2EFED70C2EFCD700004CD0010EBE
:10057A00236E28DF260E0C6EA80E0D6E0D2EFED7EA
:10058A000C2EFCD700003FD0236A1CDF260E0C6E0F
:10059A00A80E0D6E0D2EFED70C2EFCD7000033D000
:1005AA00010E236E0FDF260E0C6EA80E0D6E0D2E99
:1005BA00FED70C2EFCD7000026D0236A03DF260EB6
:1005CA000C6EA80E0D6E0D2EFED70C2EFCD7000059
:1005DA001AD019D01750040A98E01750FC0AA2E062
:1005EA001750030AABE01750FD0AB5E01750020A8C
:1005FA00BEE01750FE0AC8E01750010AD1E01750B2
:08060A00FF0ADBE0E6D7120055
:10061200010E236EB6DEFFDD1850010AF9E0010E6D
:10062200236EAFDEF8DD1850000AF9E0010E236EEA
:0E063200A8DEF1DD1E50010AF9E0FDDD120028
:10064000F2DE010E156E155216E05FDF07DF00C007
:1006500016F00050020A0EE158DF020E0B6E860EF5
:100660000C6E990E0D6E0D2EFED70C2EFCD70B2E98
:10067000FAD7156AE8D7F2DE00C016F00050040A77
:1006800002E143DF5BD01650010A16E1C30E0C6E87
:10069000CD0E0D6E0D2EFED70C2EFCD7CDDD410EEE
:1006A0000C6EEE0E0D6E0D2EFED70C2EFCD700003C
:1006B000B0DFC5DEA4DE42D01650000A16E1C30E3C
:1006C0000C6ECD0E0D6E0D2EFED70C2EFCD7B4DDAC
:1006D000410E0C6EEE0E0D6E0D2EFED70C2EFCD7BD
:1006E00000008DDEACDE95DF29D01650020A26E12F
:1006F000C30E0C6ECD0E0D6E0D2EFED70C2EFCD73C
:100700009BDD410E0C6EEE0E0D6E0D2EFED70C2EE7
:10071000FCD7000074DE93DE7CDF030E0B6E8A0EC6
:100720000C6E550E0D6E0D2EFED70C2EFCD70B2E1B
:10073000FAD7000000006DDF82DE61DE84D7FFD7CC
:020000040030CA
:0D000100C20F3E3C9D81FF0FC00FE00F407D
:00000001FF
